{
  "_format": "hh-sol-artifact-1",
  "contractName": "DonationConnection",
  "sourceName": "contracts/DonationConnection.sol",
  "abi": [
    {
      "inputs": [
        {
          "internalType": "uint256",
          "name": "",
          "type": "uint256"
        }
      ],
      "name": "campaigns",
      "outputs": [
        {
          "internalType": "address",
          "name": "owner",
          "type": "address"
        },
        {
          "internalType": "string",
          "name": "title",
          "type": "string"
        },
        {
          "internalType": "string",
          "name": "description",
          "type": "string"
        },
        {
          "internalType": "uint256",
          "name": "target",
          "type": "uint256"
        },
        {
          "internalType": "uint256",
          "name": "deadline",
          "type": "uint256"
        },
        {
          "internalType": "uint256",
          "name": "amountCollected",
          "type": "uint256"
        }
      ],
      "stateMutability": "view",
      "type": "function"
    },
    {
      "inputs": [
        {
          "internalType": "address",
          "name": "_owner",
          "type": "address"
        },
        {
          "internalType": "string",
          "name": "_title",
          "type": "string"
        },
        {
          "internalType": "string",
          "name": "_description",
          "type": "string"
        },
        {
          "internalType": "uint256",
          "name": "_target",
          "type": "uint256"
        },
        {
          "internalType": "uint256",
          "name": "_deadline",
          "type": "uint256"
        }
      ],
      "name": "createCampaign",
      "outputs": [
        {
          "internalType": "uint256",
          "name": "",
          "type": "uint256"
        }
      ],
      "stateMutability": "nonpayable",
      "type": "function"
    },
    {
      "inputs": [
        {
          "internalType": "uint256",
          "name": "_id",
          "type": "uint256"
        }
      ],
      "name": "donateToCampaign",
      "outputs": [],
      "stateMutability": "payable",
      "type": "function"
    },
    {
      "inputs": [],
      "name": "getCampaigns",
      "outputs": [
        {
          "components": [
            {
              "internalType": "address",
              "name": "owner",
              "type": "address"
            },
            {
              "internalType": "string",
              "name": "title",
              "type": "string"
            },
            {
              "internalType": "string",
              "name": "description",
              "type": "string"
            },
            {
              "internalType": "uint256",
              "name": "target",
              "type": "uint256"
            },
            {
              "internalType": "uint256",
              "name": "deadline",
              "type": "uint256"
            },
            {
              "internalType": "uint256",
              "name": "amountCollected",
              "type": "uint256"
            },
            {
              "internalType": "address[]",
              "name": "donators",
              "type": "address[]"
            },
            {
              "internalType": "uint256[]",
              "name": "donations",
              "type": "uint256[]"
            }
          ],
          "internalType": "struct DonationConnection.Campaign[]",
          "name": "",
          "type": "tuple[]"
        }
      ],
      "stateMutability": "view",
      "type": "function"
    },
    {
      "inputs": [
        {
          "internalType": "uint256",
          "name": "_id",
          "type": "uint256"
        }
      ],
      "name": "getDonators",
      "outputs": [
        {
          "internalType": "address[]",
          "name": "",
          "type": "address[]"
        },
        {
          "internalType": "uint256[]",
          "name": "",
          "type": "uint256[]"
        }
      ],
      "stateMutability": "view",
      "type": "function"
    },
    {
      "inputs": [],
      "name": "numberOfCampaigns",
      "outputs": [
        {
          "internalType": "uint256",
          "name": "",
          "type": "uint256"
        }
      ],
      "stateMutability": "view",
      "type": "function"
    }
  ],
  "bytecode": "0x608060405234801561001057600080fd5b5061178d806100206000396000f3fe6080604052600436106100555760003560e01c8063075843c31461005a57806307ca140d146100975780630fa91fa9146100c2578063141961bc1461010057806342a4fda814610142578063a6b036331461015e575b600080fd5b34801561006657600080fd5b50610081600480360381019061007c9190610c08565b610189565b60405161008e9190610cca565b60405180910390f35b3480156100a357600080fd5b506100ac610299565b6040516100b99190610cca565b60405180910390f35b3480156100ce57600080fd5b506100e960048036038101906100e49190610ce5565b61029f565b6040516100f7929190610e8e565b60405180910390f35b34801561010c57600080fd5b5061012760048036038101906101229190610ce5565b6103af565b60405161013996959493929190610f53565b60405180910390f35b61015c60048036038101906101579190610ce5565b61051b565b005b34801561016a57600080fd5b5061017361067b565b6040516101809190611271565b60405180910390f35b600080600080600154815260200190815260200160002090504283116101e4576040517f08c379a00000000000000000000000000000000000000000000000000000000081526004016101db90611305565b60405180910390fd5b868160000160006101000a81548173ffffffffffffffffffffffffffffffffffffffff021916908373ffffffffffffffffffffffffffffffffffffffff160217905550858160010190816102389190611531565b508481600201908161024a9190611531565b50838160030181905550828160040181905550600081600501819055506001600081548092919061027a90611632565b91905055506001805461028d919061167a565b91505095945050505050565b60015481565b6060806000808481526020019081526020016000206006016000808581526020019081526020016000206007018180548060200260200160405190810160405280929190818152602001828054801561034d57602002820191906000526020600020905b8160009054906101000a900473ffffffffffffffffffffffffffffffffffffffff1673ffffffffffffffffffffffffffffffffffffffff1681526020019060010190808311610303575b505050505091508080548060200260200160405190810160405280929190818152602001828054801561039f57602002820191906000526020600020905b81548152602001906001019080831161038b575b5050505050905091509150915091565b60006020528060005260406000206000915090508060000160009054906101000a900473ffffffffffffffffffffffffffffffffffffffff16908060010180546103f890611354565b80601f016020809104026020016040519081016040528092919081815260200182805461042490611354565b80156104715780601f1061044657610100808354040283529160200191610471565b820191906000526020600020905b81548152906001019060200180831161045457829003601f168201915b50505050509080600201805461048690611354565b80601f01602080910402602001604051908101604052809291908181526020018280546104b290611354565b80156104ff5780601f106104d4576101008083540402835291602001916104ff565b820191906000526020600020905b8154815290600101906020018083116104e257829003601f168201915b5050505050908060030154908060040154908060050154905086565b60003490506000806000848152602001908152602001600020905080600601339080600181540180825580915050600190039060005260206000200160009091909190916101000a81548173ffffffffffffffffffffffffffffffffffffffff021916908373ffffffffffffffffffffffffffffffffffffffff1602179055508060070182908060018154018082558091505060019003906000526020600020016000909190919091505560008160000160009054906101000a900473ffffffffffffffffffffffffffffffffffffffff1673ffffffffffffffffffffffffffffffffffffffff1683604051610610906116df565b60006040518083038185875af1925050503d806000811461064d576040519150601f19603f3d011682016040523d82523d6000602084013e610652565b606091505b5050905080156106755782826005015461066c91906116f4565b82600501819055505b50505050565b6060600060015467ffffffffffffffff81111561069b5761069a610aa7565b5b6040519080825280602002602001820160405280156106d457816020015b6106c16109bf565b8152602001906001900390816106b95790505b50905060005b6001548110156109b7576000806000838152602001908152602001600020905080604051806101000160405290816000820160009054906101000a900473ffffffffffffffffffffffffffffffffffffffff1673ffffffffffffffffffffffffffffffffffffffff1673ffffffffffffffffffffffffffffffffffffffff16815260200160018201805461076d90611354565b80601f016020809104026020016040519081016040528092919081815260200182805461079990611354565b80156107e65780601f106107bb576101008083540402835291602001916107e6565b820191906000526020600020905b8154815290600101906020018083116107c957829003601f168201915b505050505081526020016002820180546107ff90611354565b80601f016020809104026020016040519081016040528092919081815260200182805461082b90611354565b80156108785780601f1061084d57610100808354040283529160200191610878565b820191906000526020600020905b81548152906001019060200180831161085b57829003601f168201915b505050505081526020016003820154815260200160048201548152602001600582015481526020016006820180548060200260200160405190810160405280929190818152602001828054801561092457602002820191906000526020600020905b8160009054906101000a900473ffffffffffffffffffffffffffffffffffffffff1673ffffffffffffffffffffffffffffffffffffffff16815260200190600101908083116108da575b505050505081526020016007820180548060200260200160405190810160405280929190818152602001828054801561097c57602002820191906000526020600020905b815481526020019060010190808311610968575b50505050508152505083838151811061099857610997611728565b5b60200260200101819052505080806109af90611632565b9150506106da565b508091505090565b604051806101000160405280600073ffffffffffffffffffffffffffffffffffffffff168152602001606081526020016060815260200160008152602001600081526020016000815260200160608152602001606081525090565b6000604051905090565b600080fd5b600080fd5b600073ffffffffffffffffffffffffffffffffffffffff82169050919050565b6000610a5982610a2e565b9050919050565b610a6981610a4e565b8114610a7457600080fd5b50565b600081359050610a8681610a60565b92915050565b600080fd5b600080fd5b6000601f19601f8301169050919050565b7f4e487b7100000000000000000000000000000000000000000000000000000000600052604160045260246000fd5b610adf82610a96565b810181811067ffffffffffffffff82111715610afe57610afd610aa7565b5b80604052505050565b6000610b11610a1a565b9050610b1d8282610ad6565b919050565b600067ffffffffffffffff821115610b3d57610b3c610aa7565b5b610b4682610a96565b9050602081019050919050565b82818337600083830152505050565b6000610b75610b7084610b22565b610b07565b905082815260208101848484011115610b9157610b90610a91565b5b610b9c848285610b53565b509392505050565b600082601f830112610bb957610bb8610a8c565b5b8135610bc9848260208601610b62565b91505092915050565b6000819050919050565b610be581610bd2565b8114610bf057600080fd5b50565b600081359050610c0281610bdc565b92915050565b600080600080600060a08688031215610c2457610c23610a24565b5b6000610c3288828901610a77565b955050602086013567ffffffffffffffff811115610c5357610c52610a29565b5b610c5f88828901610ba4565b945050604086013567ffffffffffffffff811115610c8057610c7f610a29565b5b610c8c88828901610ba4565b9350506060610c9d88828901610bf3565b9250506080610cae88828901610bf3565b9150509295509295909350565b610cc481610bd2565b82525050565b6000602082019050610cdf6000830184610cbb565b92915050565b600060208284031215610cfb57610cfa610a24565b5b6000610d0984828501610bf3565b91505092915050565b600081519050919050565b600082825260208201905092915050565b6000819050602082019050919050565b610d4781610a4e565b82525050565b6000610d598383610d3e565b60208301905092915050565b6000602082019050919050565b6000610d7d82610d12565b610d878185610d1d565b9350610d9283610d2e565b8060005b83811015610dc3578151610daa8882610d4d565b9750610db583610d65565b925050600181019050610d96565b5085935050505092915050565b600081519050919050565b600082825260208201905092915050565b6000819050602082019050919050565b610e0581610bd2565b82525050565b6000610e178383610dfc565b60208301905092915050565b6000602082019050919050565b6000610e3b82610dd0565b610e458185610ddb565b9350610e5083610dec565b8060005b83811015610e81578151610e688882610e0b565b9750610e7383610e23565b925050600181019050610e54565b5085935050505092915050565b60006040820190508181036000830152610ea88185610d72565b90508181036020830152610ebc8184610e30565b90509392505050565b610ece81610a4e565b82525050565b600081519050919050565b600082825260208201905092915050565b60005b83811015610f0e578082015181840152602081019050610ef3565b60008484015250505050565b6000610f2582610ed4565b610f2f8185610edf565b9350610f3f818560208601610ef0565b610f4881610a96565b840191505092915050565b600060c082019050610f686000830189610ec5565b8181036020830152610f7a8188610f1a565b90508181036040830152610f8e8187610f1a565b9050610f9d6060830186610cbb565b610faa6080830185610cbb565b610fb760a0830184610cbb565b979650505050505050565b600081519050919050565b600082825260208201905092915050565b6000819050602082019050919050565b600082825260208201905092915050565b600061100a82610ed4565b6110148185610fee565b9350611024818560208601610ef0565b61102d81610a96565b840191505092915050565b600082825260208201905092915050565b600061105482610d12565b61105e8185611038565b935061106983610d2e565b8060005b8381101561109a5781516110818882610d4d565b975061108c83610d65565b92505060018101905061106d565b5085935050505092915050565b600082825260208201905092915050565b60006110c382610dd0565b6110cd81856110a7565b93506110d883610dec565b8060005b838110156111095781516110f08882610e0b565b97506110fb83610e23565b9250506001810190506110dc565b5085935050505092915050565b60006101008301600083015161112f6000860182610d3e565b50602083015184820360208601526111478282610fff565b915050604083015184820360408601526111618282610fff565b91505060608301516111766060860182610dfc565b5060808301516111896080860182610dfc565b5060a083015161119c60a0860182610dfc565b5060c083015184820360c08601526111b48282611049565b91505060e083015184820360e08601526111ce82826110b8565b9150508091505092915050565b60006111e78383611116565b905092915050565b6000602082019050919050565b600061120782610fc2565b6112118185610fcd565b93508360208202850161122385610fde565b8060005b8581101561125f578484038952815161124085826111db565b945061124b836111ef565b925060208a01995050600181019050611227565b50829750879550505050505092915050565b6000602082019050818103600083015261128b81846111fc565b905092915050565b7f54686520646561646c696e652073686f756c642062652061206461746520696e60008201527f20746865206675747572652e0000000000000000000000000000000000000000602082015250565b60006112ef602c83610edf565b91506112fa82611293565b604082019050919050565b6000602082019050818103600083015261131e816112e2565b9050919050565b7f4e487b7100000000000000000000000000000000000000000000000000000000600052602260045260246000fd5b6000600282049050600182168061136c57607f821691505b60208210810361137f5761137e611325565b5b50919050565b60008190508160005260206000209050919050565b60006020601f8301049050919050565b600082821b905092915050565b6000600883026113e77fffffffffffffffffffffffffffffffffffffffffffffffffffffffffffffffff826113aa565b6113f186836113aa565b95508019841693508086168417925050509392505050565b6000819050919050565b600061142e61142961142484610bd2565b611409565b610bd2565b9050919050565b6000819050919050565b61144883611413565b61145c61145482611435565b8484546113b7565b825550505050565b600090565b611471611464565b61147c81848461143f565b505050565b5b818110156114a057611495600082611469565b600181019050611482565b5050565b601f8211156114e5576114b681611385565b6114bf8461139a565b810160208510156114ce578190505b6114e26114da8561139a565b830182611481565b50505b505050565b600082821c905092915050565b6000611508600019846008026114ea565b1980831691505092915050565b600061152183836114f7565b9150826002028217905092915050565b61153a82610ed4565b67ffffffffffffffff81111561155357611552610aa7565b5b61155d8254611354565b6115688282856114a4565b600060209050601f83116001811461159b5760008415611589578287015190505b6115938582611515565b8655506115fb565b601f1984166115a986611385565b60005b828110156115d1578489015182556001820191506020850194506020810190506115ac565b868310156115ee57848901516115ea601f8916826114f7565b8355505b6001600288020188555050505b505050505050565b7f4e487b7100000000000000000000000000000000000000000000000000000000600052601160045260246000fd5b600061163d82610bd2565b91507fffffffffffffffffffffffffffffffffffffffffffffffffffffffffffffffff820361166f5761166e611603565b5b600182019050919050565b600061168582610bd2565b915061169083610bd2565b92508282039050818111156116a8576116a7611603565b5b92915050565b600081905092915050565b50565b60006116c96000836116ae565b91506116d4826116b9565b600082019050919050565b60006116ea826116bc565b9150819050919050565b60006116ff82610bd2565b915061170a83610bd2565b925082820190508082111561172257611721611603565b5b92915050565b7f4e487b7100000000000000000000000000000000000000000000000000000000600052603260045260246000fdfea2646970667358221220d3d21df707ee4ddf1db761b9afc44d5322edbb084498ee380d9e6a55e1cbdd8e64736f6c63430008120033",
  "linkReferences": {},
  "deployedLinkReferences": {}
}